{
  "blockExtraData": "0x",
  "difficulty": 1,
  "extDataHash": "0x0000000000000000000000000000000000000000000000000000000000000000",
  "proofOfAuthorityData": "0xd883010916846765746888676f312e31352e35856c696e75786b37df8e7823b6568dce07d41336cfd7fcae0d9bdd21d8dc4da5247ec009d2fd",
  "gasLimit": 8000000,
  "gasUsed": 153710,
  "hash": "0x46fb03e3e5ac271708d4dd18354f7a5b94cee529aa99d2f50c594df4042984e3",
  "logsBloom": "0x000000000000400000000000a00000000000000080000000200000010000000000000040000001000040000000200000000001100000000000000000000000000000800000000000000000080000000000000000004000000000000000000000000000040200002000000000000008000000000080000400000000100000000040000000000000000000000000000800000000000000000800000800000000000000000000000040000000000000000000000000000000000000000000000000000000020000000000000000000000000000000000000010000010020000a0000000000000000000000000000000000000000000000000000000000000000000",
  "miner": "0x0100000000000000000000000000000000000000",
  "mixHash": "0x0000000000000000000000000000000000000000000000000000000000000000",
  "nonce": "0x0000000000000000",
  "number": 65299,
  "parentHash": "0x22302d7146f004da76dee431ca1bcd3061bb152f271138b17c389a5e0dbb4d8d",
  "receiptsRoot": "0x62390192854921245bc3b50dc73bb8fe01a2ce83300b5c6ff36ea0f10529100b",
  "sha3Uncles": "0x1dcc4de8dec75d7aab85b567b6ccd41ad312451b948a7413f0a142fd40d49347",
  "size": 912,
  "stateRoot": "0xdb455c940ba8568fd2f815815c7c1d3ded317c7fda35b54a9635122977b392c6",
  "timestamp": 1612905760,
  "totalDifficulty": 65299,
  "transactions": [
    {
      "blockHash": "0x46fb03e3e5ac271708d4dd18354f7a5b94cee529aa99d2f50c594df4042984e3",
      "blockNumber": 65299,
      "from": "0xc044e2ba44649Bc8Ff7b572758004818371C6b70",
      "gas": 239387,
      "gasPrice": 470000000000,
      "hash": "0xab351b4c9ff15ccb9b7d3a53b61355efb7d7ef3bdf0c7da5d6a1378058c3809c",
      "input": "0x33c6b725000000000000000000000000f20d962a6c8f70c731bd838a3a388d7d48fa6e15000000000000000000000000000000000000000000000000b0ddfc2efddf28140000000000000000000000000000000000000000000000001639a5b3029459a60000000000000000000000000000000000000000000000057364a97094d09758000000000000000000000000c044e2ba44649bc8ff7b572758004818371c6b700000000000000000000000000000000000000000000000000000017788ae461f",
      "nonce": 6,
      "to": "0xE54Ca86531e17Ef3616d22Ca28b0D458b6C89106",
      "transactionIndex": 0,
      "value": 0,
      "type": "0x0",
      "chainId": "0xa86a",
      "v": 86264,
      "r": "0x029eb2a9dba253c3deacd02d4910686b31c4aa831de4515a81cb8672b660988d",
      "s": "0x6d855e96808af8225ef733af8dc8f605e3d75f8544397c6260a8200aba6461ab"
    }
  ],
  "transactionsRoot": "0x576974fd8081712710bd75f500fb48df9f90ac81010301ed7ff68e120416c781",
  "uncles": [],
  "logs": [
    {
      "address": "0x1aCf1583bEBdCA21C8025E172D8E8f2817343d65",
      "topics": [
        "0xddf252ad1be2c89b69c2b068fc378daa952ba7f163c4a11628f55a4df523b3ef",
        "0x000000000000000000000000c044e2ba44649bc8ff7b572758004818371c6b70",
        "0x0000000000000000000000001acf1583bebdca21c8025e172d8e8f2817343d65"
      ],
      "data": "0x000000000000000000000000000000000000000000000000b0ddfc2efddf2814",
      "blockNumber": 65299,
      "transactionHash": "0xab351b4c9ff15ccb9b7d3a53b61355efb7d7ef3bdf0c7da5d6a1378058c3809c",
      "transactionIndex": 0,
      "blockHash": "0x46fb03e3e5ac271708d4dd18354f7a5b94cee529aa99d2f50c594df4042984e3",
      "logIndex": 0,
      "removed": false,
      "name": "Transfer",
      "dataDecoded": {
        "from": "0xc044e2ba44649Bc8Ff7b572758004818371C6b70",
        "to": "0x1aCf1583bEBdCA21C8025E172D8E8f2817343d65",
        "value": 12744619799286327316
      }
    },
    {
      "address": "0x1aCf1583bEBdCA21C8025E172D8E8f2817343d65",
      "topics": [
        "0xddf252ad1be2c89b69c2b068fc378daa952ba7f163c4a11628f55a4df523b3ef",
        "0x0000000000000000000000001acf1583bebdca21c8025e172d8e8f2817343d65",
        "0x0000000000000000000000000000000000000000000000000000000000000000"
      ],
      "data": "0x000000000000000000000000000000000000000000000000b0ddfc2efddf2814",
      "blockNumber": 65299,
      "transactionHash": "0xab351b4c9ff15ccb9b7d3a53b61355efb7d7ef3bdf0c7da5d6a1378058c3809c",
      "transactionIndex": 0,
      "blockHash": "0x46fb03e3e5ac271708d4dd18354f7a5b94cee529aa99d2f50c594df4042984e3",
      "logIndex": 1,
      "removed": false,
      "name": "Transfer",
      "dataDecoded": {
        "from": "0x1aCf1583bEBdCA21C8025E172D8E8f2817343d65",
        "to": "0x0000000000000000000000000000000000000000",
        "value": 12744619799286327316
      }
    },
    {
      "address": "0x1aCf1583bEBdCA21C8025E172D8E8f2817343d65",
      "topics": [
        "0x1c411e9a96e071241c2f21f7726b17ae89e3cab4c78be50e062b03a9fffbbad1"
      ],
      "data": "0x0000000000000000000000000000000000000000000000aa41a239384585cbb0000000000000000000000000000000000000000000000002b63647b338380c65",
      "blockNumber": 65299,
      "transactionHash": "0xab351b4c9ff15ccb9b7d3a53b61355efb7d7ef3bdf0c7da5d6a1378058c3809c",
      "transactionIndex": 0,
      "blockHash": "0x46fb03e3e5ac271708d4dd18354f7a5b94cee529aa99d2f50c594df4042984e3",
      "logIndex": 4,
      "removed": false,
      "name": "Sync",
      "dataDecoded": {
        "reserve0": 3140675898003163564976,
        "reserve1": 50023248746132278373
      }
    },
    {
      "address": "0x1aCf1583bEBdCA21C8025E172D8E8f2817343d65",
      "topics": [
        "0xdccd412f0b1252819cb1fd330b93224ca42612892bb3f4f789976e6d81936496",
        "0x000000000000000000000000e54ca86531e17ef3616d22ca28b0d458b6c89106",
        "0x000000000000000000000000e54ca86531e17ef3616d22ca28b0d458b6c89106"
      ],
      "data": "0x0000000000000000000000000000000000000000000000057a67bd96741d89f300000000000000000000000000000000000000000000000016563d0b63132a81",
      "blockNumber": 65299,
      "transactionHash": "0xab351b4c9ff15ccb9b7d3a53b61355efb7d7ef3bdf0c7da5d6a1378058c3809c",
      "transactionIndex": 0,
      "blockHash": "0x46fb03e3e5ac271708d4dd18354f7a5b94cee529aa99d2f50c594df4042984e3",
      "logIndex": 5,
      "removed": false,
      "name": "Burn",
      "dataDecoded": {
        "sender": "0xE54Ca86531e17Ef3616d22Ca28b0D458b6C89106",
        "to": "0xE54Ca86531e17Ef3616d22Ca28b0D458b6C89106",
        "amount0": 101053947217667000819,
        "amount1": 1609541035947666049
      }
    }
  ]
}