{
  "blockExtraData": "0x",
  "difficulty": 1,
  "extDataHash": "0x0000000000000000000000000000000000000000000000000000000000000000",
  "proofOfAuthorityData": "0xd883010916846765746888676f312e31352e35856c696e75782ff890cd0a74064ea58f12cce34a2bbb8e06171e34deb7a858ce2ffa2cdaafee",
  "gasLimit": 8000000,
  "gasUsed": 3448278,
  "hash": "0xb77cbe6c45530fc55108ec76145e9aa337834fcdf3601c420db0e0a0261fc990",
  "logsBloom": "0x00000000000004000000000280000000000000008000000020000000000401000000004000000040004800000000000000000000000020000000001000000000000080000000000000000008000000000000004000000000000000008000000000000010020000000000000000000800000000000008000000000010010000004000000000000000000000800000000000000001000000080000000001080080000000000800000000000010000000000000000000000000000000000002000001000002000000000000000001020040000100000000001000000000000020000000000000000000080200000000000000000000000000400020000000000000",
  "miner": "0x0100000000000000000000000000000000000000",
  "mixHash": "0x0000000000000000000000000000000000000000000000000000000000000000",
  "nonce": "0x0000000000000000",
  "number": 61499,
  "parentHash": "0x9a7660b5f08880ed3bd9a731bac3ab9303254dfba05a1ec8a7d274e3b462d928",
  "receiptsRoot": "0xa25e2d8f9f42a760b73b46b244bb6053f12449ff0fba6587ef56e48721538e78",
  "sha3Uncles": "0x1dcc4de8dec75d7aab85b567b6ccd41ad312451b948a7413f0a142fd40d49347",
  "size": 922,
  "stateRoot": "0xc0889bd3fef8bf13f5d74c8555150e7a909d31c3c79a58bc8b718eda49fd094c",
  "timestamp": 1612890610,
  "totalDifficulty": 61499,
  "transactions": [
    {
      "blockHash": "0xb77cbe6c45530fc55108ec76145e9aa337834fcdf3601c420db0e0a0261fc990",
      "blockNumber": 61499,
      "from": "0x808cE8deC9E10beD8d0892aCEEf9F1B8ec2F52Bd",
      "gas": 3837633,
      "gasPrice": 470000000000,
      "hash": "0xc184868ec951dc039d46bfe8a42605954583e8bdad5ce5c6d837b538bf564973",
      "input": "0xf91b3f7200000000000000000000000060781c2586d68229fde47564546784ab3faca9820000000000000000000000000000000000000000000000008ac7230489e800000000000000000000000000000000000000000000000000008ac7230489e80000000000000000000000000000000000000000000000000000043478e506f18000000000000000000000000000808ce8dec9e10bed8d0892aceef9f1b8ec2f52bd0000000000000000000000000000000000000000000000000000017787c70bcc",
      "nonce": 494,
      "to": "0xE54Ca86531e17Ef3616d22Ca28b0D458b6C89106",
      "transactionIndex": 0,
      "value": 303000000000000000,
      "type": "0x0",
      "chainId": "0xa86a",
      "v": 86263,
      "r": "0xbd3b871ae49cda64f1975d17cf2bf5058165d29e06b713bb670ef5563bb73921",
      "s": "0x6ed1a34814313caa7de4b5a7bc81cf493abac7961a52af4499cfdc0605870b4f"
    }
  ],
  "transactionsRoot": "0x6e17881494c7996d210a459375b4ccfddcfc784da01500547318e015428bc1ea",
  "uncles": [],
  "logs": [
    {
      "address": "0xefa94DE7a4656D787667C749f7E1223D71E9FD88",
      "topics": [
        "0x0d3648bd0f6ba80134a33ba9275ac585d9d315f0ad8355cddefde31afa28d0e9",
        "0x00000000000000000000000060781c2586d68229fde47564546784ab3faca982",
        "0x000000000000000000000000b31f66aa3c1e785363f0875a1b74e27b85fd66c7"
      ],
      "data": "0x000000000000000000000000d7538cabbf8605bde1f4901b47b8d42c61de0367000000000000000000000000000000000000000000000000000000000000000b",
      "blockNumber": 61499,
      "transactionHash": "0xc184868ec951dc039d46bfe8a42605954583e8bdad5ce5c6d837b538bf564973",
      "transactionIndex": 0,
      "blockHash": "0xb77cbe6c45530fc55108ec76145e9aa337834fcdf3601c420db0e0a0261fc990",
      "logIndex": 0,
      "removed": false,
      "name": "PairCreated",
      "dataDecoded": {
        "token0": "0x60781C2586D68229fde47564546784ab3fACA982",
        "token1": "0xB31f66AA3C1e785363F0875A1B74E27b85FD66c7",
        "pair": "0xd7538cABBf8605BdE1f4901B47B8D42c61DE0367",
        "": 11
      }
    },
    {
      "address": "0xd7538cABBf8605BdE1f4901B47B8D42c61DE0367",
      "topics": [
        "0xddf252ad1be2c89b69c2b068fc378daa952ba7f163c4a11628f55a4df523b3ef",
        "0x0000000000000000000000000000000000000000000000000000000000000000",
        "0x0000000000000000000000000000000000000000000000000000000000000000"
      ],
      "data": "0x00000000000000000000000000000000000000000000000000000000000003e8",
      "blockNumber": 61499,
      "transactionHash": "0xc184868ec951dc039d46bfe8a42605954583e8bdad5ce5c6d837b538bf564973",
      "transactionIndex": 0,
      "blockHash": "0xb77cbe6c45530fc55108ec76145e9aa337834fcdf3601c420db0e0a0261fc990",
      "logIndex": 4,
      "removed": false,
      "name": "Transfer",
      "dataDecoded": {
        "from": "0x0000000000000000000000000000000000000000",
        "to": "0x0000000000000000000000000000000000000000",
        "value": 1000
      }
    },
    {
      "address": "0xd7538cABBf8605BdE1f4901B47B8D42c61DE0367",
      "topics": [
        "0xddf252ad1be2c89b69c2b068fc378daa952ba7f163c4a11628f55a4df523b3ef",
        "0x0000000000000000000000000000000000000000000000000000000000000000",
        "0x000000000000000000000000808ce8dec9e10bed8d0892aceef9f1b8ec2f52bd"
      ],
      "data": "0x00000000000000000000000000000000000000000000000018282be50197afdc",
      "blockNumber": 61499,
      "transactionHash": "0xc184868ec951dc039d46bfe8a42605954583e8bdad5ce5c6d837b538bf564973",
      "transactionIndex": 0,
      "blockHash": "0xb77cbe6c45530fc55108ec76145e9aa337834fcdf3601c420db0e0a0261fc990",
      "logIndex": 5,
      "removed": false,
      "name": "Transfer",
      "dataDecoded": {
        "from": "0x0000000000000000000000000000000000000000",
        "to": "0x808cE8deC9E10beD8d0892aCEEf9F1B8ec2F52Bd",
        "value": 1740689518552920028
      }
    },
    {
      "address": "0xd7538cABBf8605BdE1f4901B47B8D42c61DE0367",
      "topics": [
        "0x1c411e9a96e071241c2f21f7726b17ae89e3cab4c78be50e062b03a9fffbbad1"
      ],
      "data": "0x0000000000000000000000000000000000000000000000008ac7230489e80000000000000000000000000000000000000000000000000000043478e506f18000",
      "blockNumber": 61499,
      "transactionHash": "0xc184868ec951dc039d46bfe8a42605954583e8bdad5ce5c6d837b538bf564973",
      "transactionIndex": 0,
      "blockHash": "0xb77cbe6c45530fc55108ec76145e9aa337834fcdf3601c420db0e0a0261fc990",
      "logIndex": 6,
      "removed": false,
      "name": "Sync",
      "dataDecoded": {
        "reserve0": 10000000000000000000,
        "reserve1": 303000000000000000
      }
    },
    {
      "address": "0xd7538cABBf8605BdE1f4901B47B8D42c61DE0367",
      "topics": [
        "0x4c209b5fc8ad50758f13e2e1088ba56a560dff690a1c6fef26394f4c03821c4f",
        "0x000000000000000000000000e54ca86531e17ef3616d22ca28b0d458b6c89106"
      ],
      "data": "0x0000000000000000000000000000000000000000000000008ac7230489e80000000000000000000000000000000000000000000000000000043478e506f18000",
      "blockNumber": 61499,
      "transactionHash": "0xc184868ec951dc039d46bfe8a42605954583e8bdad5ce5c6d837b538bf564973",
      "transactionIndex": 0,
      "blockHash": "0xb77cbe6c45530fc55108ec76145e9aa337834fcdf3601c420db0e0a0261fc990",
      "logIndex": 7,
      "removed": false,
      "name": "Mint",
      "dataDecoded": {
        "sender": "0xE54Ca86531e17Ef3616d22Ca28b0D458b6C89106",
        "amount0": 10000000000000000000,
        "amount1": 303000000000000000
      }
    }
  ]
}